:1000000011C092C337C003C595C39AC3ABC3B0C375
:10001000FEC4FDC43BC1A6C0FAC498C39DC3006022
:10002000007D800011241FBECFE5D1E0DEBFCDBF33
:10003000EEE1F0E040E017C0B591A5913591259132
:10004000059107FD0CC095918591EF01F92FE82FDF
:1000500005900D92A217B307D9F7FE0104C01D92B7
:10006000A217B307E1F7E332F40731F78DD2C8C422
:10007000F894FFCF1F920F920FB60F9211242F9377
:100080003F934F935F936F937F938F939F93AF9320
:10009000BF93EF93FF9396B386B3827094FF27C00C
:1000A00090916900992319F120916B0030916C00B7
:1000B000232B39F020916B0030916C0023303105F7
:1000C000B1F492B79E5C99BD90E198BF99B79061E9
:1000D00099BF95B39F7E95BB21E030E030936C00D3
:1000E00020936B0091E090936D0010926E0081114F
:1000F00028C08091650090916600892B31F0809135
:100100006500909166000397E1F482B7895C88BD31
:1001100088E088BF89B7886089BF85B38D7F85BB3C
:100120008091650090916600892B09F4F3D181E0FC
:1001300090E0909366008093650080936700109232
:100140006800FF91EF91BF91AF919F918F917F9147
:100150006F915F914F913F912F910F900FBE0F9034
:100160001F9018951F920F920FB60F9211242F9384
:100170003F934F935F936F937F938F939F93AF932F
:10018000BF93EF93FF9382B7845D88BD88E088BFFB
:1001900089B7886089BF80916700882321F088B380
:1001A000816088BB03C088B38E7F88BB8091670065
:1001B00026B3269591E0292721702093670090911E
:1001C00068009F5F90936800913029F19A3010F495
:1001D000A8D121C09A3019F4209364001CC09B3030
:1001E00019F41092670017C09C30A9F489B7877F73
:1001F00089BF85B3826085BB80916400811105C091
:10020000109266001092650006C083E090E0909323
:10021000660080936500FF91EF91BF91AF919F9130
:100220008F917F916F915F914F913F912F910F909F
:100230000FBE0F901F901895CF9320916B003091B7
:100240006C00232B01F5C82F85B38F7E85BB82E020
:1002500090E090936C0080936B0081E0809363004A
:1002600053D131D18093610026D1809360001092E8
:10027000620082B78C0F89BD80E188BF89B7806139
:1002800089BF81E001C080E0CF9108951F920F9255
:100290000FB60F9211242F933F934F935F936F9359
:1002A0007F938F939F93AF93BF93EF93FF9382B707
:1002B000845D89BD80E188BF89B7806189BF8091F5
:1002C0006B0090916C00019709F040C080916D0027
:1002D000882321F088B38F7D88BB03C088B38062F8
:1002E00088BB96B39295917090936D0080916E004B
:1002F0008F5F80936E00893008F489C0893031F4B3
:1003000090936A0081E080936D0081C08A3019F477
:1003100010926D007CC08B3009F079C089B78F7E58
:1003200089BF85B3806185BB80916A00882339F0DD
:1003300083E090E090936C0080936B0068C0109213
:100340006C0010926B0086E977DF61C080916B00D2
:1003500090916C00029709F057C080916300882348
:1003600021F088B38F7D88BB03C088B3806288BBCF
:10037000809162008F5F80936200893070F4809179
:100380006100882324F491E09093630002C01092EE
:100390006300880F809361003AC0893029F480910E
:1003A00060008093630033C08A3019F410926300B8
:1003B0002EC08B3061F51092620089B78F7E89BFA5
:1003C0008091600081110EC010926C0010926B0041
:1003D00088B3806288BB85B3806185BB88B38E7F1C
:1003E00088BB15C082B7885389BD80E188BF89B7B3
:1003F000806189BF68D0809361005DD08093600088
:1004000081E08093630003C089B78F7E89BFFF912D
:10041000EF91BF91AF919F918F917F916F915F917C
:100420004F913F912F910F900FBE0F901F901895F5
:1004300087B38D7F87BB88B38D7F88BB87B381608F
:1004400087BB88B38E7F88BB88B38E7F88BB87B31A
:100450008F7E87BB88B38F7E88BB87B3806287BB64
:1004600088B38F7D88BB88B3806288BB08958091F4
:10047000650090916600892B11F480E0089581E079
:10048000089585B3826085BB089581E080936900FB
:1004900085B3806185BB0895AC014F5F5F4F22B784
:1004A00006C092B72917E9F322B741505109411507
:1004B0005105B9F7089580917000843010F080E004
:1004C000089581E0089590917000911103C080918A
:1004D0007B0016C0913019F480917C0011C09230DD
:1004E00031F42091790030917A00822F09C0933045
:1004F00031F42091790030917A00832F01C08FEF81
:100500009F5F90937000089510927000089510926C
:100510007000089510926F00109274001092730092
:1005200008952091730030917400220F331FA901A8
:10053000482BCA01909374008093730020916F0040
:100540002F5F20936F00223091F481FF1CC080FF49
:1005500007C082E090E0909372008093710008954C
:1005600081E090E0909372008093710008952031B3
:1005700051F4992324F0909378008093770010929F
:100580007400109273000895F89414BE81B58861C8
:1005900081BD11BC80E886BD16BC15BA10BC85B7FC
:1005A0008F7B85BF45DF83E887B988B38F7D88BBA4
:1005B0001ABC82E083BF12BE8FEF9FEF909378004A
:1005C0008093770091E09093760080E28BBF85B7AF
:1005D0008C7F816085BF23E030E0309372002093F0
:1005E00071009093750078948091710090917200E1
:1005F0000197039708F082C0F1D1EC0190937C0041
:1006000080937B00B49910927500C4D18C0187B39C
:10061000877F87BB88B3877F88BB88B3877F88BB8A
:1006200083E887B9B4991092750080917700909112
:1006300078008C179D0710F080E001C081E0909158
:1006400076008917A9F08093760080917600882340
:1006500011F080E001C081E06FD187B3877F87BB55
:1006600088B3877F88BB88B3877F88BB83E887B9D7
:10067000809176008111D068809171009091720014
:10068000029769F482E498E990937A008093790064
:100690008CEA9FEB90937C0080937B0008C01093C2
:1006A0007A0000937900D0937C00C0937B00809106
:1006B0007100909172000397D9F410927200109219
:1006C00071008AE007C0B4991092750088EE93E03B
:1006D000E3DE8C2FCFEFC80F8111F5CF809175002D
:1006E000811101C0D2DE88B3806288BBCADE06C039
:1006F00084E090E09093720080937100809171008B
:1007000090917200049709F06FCF109272001092CE
:10071000710080917500882309F466CFA8DE8111ED
:10072000FDCF89E189DD60CF1F920F920FB60F9246
:100730001124FFCF1F920F920FB60F921124FFCFFB
:100740001F920F920FB60F921124FFCF1F920F929C
:100750000FB60F921124FFCF1F920F920FB60F9278
:100760001124FFCF1F920F920FB60F921124FFCFCB
:100770001F920F920FB60F921124FFCF1F920F926C
:100780000FB60F921124FFCF1F920F920FB60F9248
:100790001124FFCF1F920F920FB60F921124FFCF9B
:1007A0001F920F920FB60F921124FFCF81E090E0BD
:1007B00073DE089585E090E06FDE0895F7DF87B37C
:1007C000846087BB88B3846088BB88B3886088BB3B
:1007D000F1DF88B38B7F88BBEDDF88B3877F88BB71
:1007E000E9DF0895E3DF88B38B7F88BBE3DF88B35D
:1007F000886088BBDFDF87B38B7F87BB88B384606B
:1008000088BBD8DF0895CF93DF93D82FCFDF87B38E
:10081000846087BBC8E013C0DD2324F488B3846000
:1008200088BB03C088B38B7F88BB88B3886088BBD4
:10083000C1DF88B3877F88BBBDDFDD0FC150C11129
:10084000EBCF87B38B7F87BB88B3846088BB88B3CB
:10085000886088BBAFDFB29BC1E088B3877F88BB6D
:10086000A9DF8C2FDF91CF9108951F93CF93DF9352
:10087000182F9CDF87B38B7F87BB88B3846088BBCE
:10088000C8E0D0E00CC0DD0F88B3886088BB92DF81
:10089000B299D16088B3877F88BB8CDFC150C1110A
:1008A000F2CF87B3846087BB112321F088B38B7F9D
:1008B00088BB03C088B3846088BB7CDF88B3886052
:1008C00088BB78DF88B3877F88BB74DF88B38B7F72
:1008D00088BB8D2FDF91CF911F91089588B38860D9
:1008E00088BB88B3846088BB87B3886087BB87B3C5
:1008F0008B7F87BB88B3846088BB84E190E0CCDDCC
:100900000895CF93DF93C82FD62FE8DF57DFDD237D
:1009100019F08C2F816002C08C2F8E7F74DFDF91E5
:10092000CF910895CF93C82F80E3EBDF882311F098
:100930008C2F69DFCF9108951F93CF93DF930F9290
:10094000CDB7DEB7182F8AE18983C8DF60E081E088
:10095000E9DF882399F080E056DF882389F01123AE
:1009600021F089818260898303C089818D7F898399
:10097000898149DF811106C010E005C010E003C085
:1009800010E001C011E02EDF812F0F90DF91CF9199
:100990001F910895CF93DF93A1DF60E085E0C2DF70
:1009A0008823A1F01FDF61E080E3ABDF882389F0BB
:1009B00081E05BDFC82FD0E0DC2FCC2780E055DF63
:1009C000C82B10DFCE019F70906805C080E090E0DA
:1009D00002C080E090E0DF91CF91089586B18168F8
:1009E00086B984E190E058DD86B1806486B9369995
:1009F000FECF24B135B196B19F7796B9C90108955C
:100A0000EC0107D005D0CE0105D0CE0104D0F8CA44
:100A10000895089508952CDBFFFFFFFFFFFFFFFF00
:100A2000FFFFFFFFFFFFFFFFFFFFFFFFFFFFFFFFD6
:100A3000FFFFFFFFFFFFFFFFFFFFFFFFFFFFFFFFC6
:100A4000FFFFFFFFFFFFFFFFFFFFFFFFFFFFFFFFB6
:100A5000FFFFFFFFFFFFFFFFFFFFFFFFFFFFFFFFA6
:00000001FF
